{
  "contractName": "chain",
  "abi": [
    {
      "inputs": [],
      "stateMutability": "nonpayable",
      "type": "constructor"
    },
    {
      "inputs": [],
      "name": "ColdDrinkCtr",
      "outputs": [
        {
          "internalType": "uint256",
          "name": "",
          "type": "uint256"
        }
      ],
      "stateMutability": "view",
      "type": "function",
      "constant": true
    },
    {
      "inputs": [],
      "name": "Owner",
      "outputs": [
        {
          "internalType": "address",
          "name": "",
          "type": "address"
        }
      ],
      "stateMutability": "view",
      "type": "function",
      "constant": true
    },
    {
      "inputs": [
        {
          "internalType": "address",
          "name": "",
          "type": "address"
        }
      ],
      "name": "Participants",
      "outputs": [
        {
          "internalType": "enum chain.Role",
          "name": "",
          "type": "uint8"
        }
      ],
      "stateMutability": "view",
      "type": "function",
      "constant": true
    },
    {
      "inputs": [
        {
          "internalType": "uint256",
          "name": "",
          "type": "uint256"
        }
      ],
      "name": "Stock",
      "outputs": [
        {
          "internalType": "uint256",
          "name": "id",
          "type": "uint256"
        },
        {
          "internalType": "string",
          "name": "name",
          "type": "string"
        },
        {
          "internalType": "string",
          "name": "description",
          "type": "string"
        },
        {
          "internalType": "uint256",
          "name": "RMSid",
          "type": "uint256"
        },
        {
          "internalType": "uint256",
          "name": "MANid",
          "type": "uint256"
        },
        {
          "internalType": "uint256",
          "name": "DISid",
          "type": "uint256"
        },
        {
          "internalType": "uint256",
          "name": "RETid",
          "type": "uint256"
        },
        {
          "internalType": "enum chain.STAGE",
          "name": "stage",
          "type": "uint8"
        },
        {
          "internalType": "bool",
          "name": "ingredientsPermitted",
          "type": "bool"
        }
      ],
      "stateMutability": "view",
      "type": "function",
      "constant": true
    },
    {
      "inputs": [],
      "name": "disCtr",
      "outputs": [
        {
          "internalType": "uint256",
          "name": "",
          "type": "uint256"
        }
      ],
      "stateMutability": "view",
      "type": "function",
      "constant": true
    },
    {
      "inputs": [],
      "name": "manCtr",
      "outputs": [
        {
          "internalType": "uint256",
          "name": "",
          "type": "uint256"
        }
      ],
      "stateMutability": "view",
      "type": "function",
      "constant": true
    },
    {
      "inputs": [],
      "name": "retCtr",
      "outputs": [
        {
          "internalType": "uint256",
          "name": "",
          "type": "uint256"
        }
      ],
      "stateMutability": "view",
      "type": "function",
      "constant": true
    },
    {
      "inputs": [],
      "name": "rmsCtr",
      "outputs": [
        {
          "internalType": "uint256",
          "name": "",
          "type": "uint256"
        }
      ],
      "stateMutability": "view",
      "type": "function",
      "constant": true
    },
    {
      "inputs": [
        {
          "internalType": "address",
          "name": "_address",
          "type": "address"
        },
        {
          "internalType": "enum chain.Role",
          "name": "_role",
          "type": "uint8"
        }
      ],
      "name": "addParticipant",
      "outputs": [],
      "stateMutability": "nonpayable",
      "type": "function"
    },
    {
      "inputs": [
        {
          "internalType": "uint256",
          "name": "_ID",
          "type": "uint256"
        }
      ],
      "name": "showStage",
      "outputs": [
        {
          "internalType": "string",
          "name": "",
          "type": "string"
        }
      ],
      "stateMutability": "view",
      "type": "function",
      "constant": true
    },
    {
      "inputs": [
        {
          "internalType": "string",
          "name": "_name",
          "type": "string"
        },
        {
          "internalType": "string",
          "name": "_description",
          "type": "string"
        },
        {
          "internalType": "bool",
          "name": "_ingredientsPermitted",
          "type": "bool"
        }
      ],
      "name": "addColdDrink",
      "outputs": [],
      "stateMutability": "nonpayable",
      "type": "function"
    },
    {
      "inputs": [
        {
          "internalType": "uint256",
          "name": "_ID",
          "type": "uint256"
        }
      ],
      "name": "supplyRawMaterials",
      "outputs": [],
      "stateMutability": "nonpayable",
      "type": "function"
    },
    {
      "inputs": [
        {
          "internalType": "uint256",
          "name": "_ID",
          "type": "uint256"
        }
      ],
      "name": "manufactureColdDrink",
      "outputs": [],
      "stateMutability": "nonpayable",
      "type": "function"
    },
    {
      "inputs": [
        {
          "internalType": "uint256",
          "name": "_ID",
          "type": "uint256"
        }
      ],
      "name": "distributeColdDrink",
      "outputs": [],
      "stateMutability": "nonpayable",
      "type": "function"
    },
    {
      "inputs": [
        {
          "internalType": "uint256",
          "name": "_ID",
          "type": "uint256"
        }
      ],
      "name": "retailColdDrink",
      "outputs": [],
      "stateMutability": "nonpayable",
      "type": "function"
    },
    {
      "inputs": [
        {
          "internalType": "uint256",
          "name": "_ID",
          "type": "uint256"
        }
      ],
      "name": "sellColdDrink",
      "outputs": [],
      "stateMutability": "nonpayable",
      "type": "function"
    },
    {
      "inputs": [
        {
          "internalType": "address",
          "name": "_address",
          "type": "address"
        }
      ],
      "name": "checkRole",
      "outputs": [
        {
          "internalType": "string",
          "name": "",
          "type": "string"
        }
      ],
      "stateMutability": "view",
      "type": "function",
      "constant": true
    }
  ],
  "bytecode": "0x60806040526000600155600060025560006003556000600455600060055534801561002957600080fd5b50336000806101000a81548173ffffffffffffffffffffffffffffffffffffffff021916908373ffffffffffffffffffffffffffffffffffffffff160217905550612262806100796000396000f3fe608060405234801561001057600080fd5b506004361061010b5760003560e01c8063595aa13d116100a2578063a0d7823e11610071578063a0d7823e14610298578063a288bb9e146102c8578063b4a99a4e146102e4578063dd28639814610302578063e101a2e0146103205761010b565b8063595aa13d146102125780637445c7a3146102425780637e43d94d1461025e578063815e73a61461027c5761010b565b806333106cda116100de57806333106cda14610182578063438e9c4d146101a0578063442cbcb3146101be57806356898136146101da5761010b565b806304e0fed2146101105780632818f7601461012c5780632b74ebd4146101485780632bdb2e6b14610164575b600080fd5b61012a60048036038101906101259190611825565b610350565b005b610146600480360381019061014191906119d0565b6104ee565b005b610162600480360381019061015d9190611825565b6106c9565b005b61016c610867565b6040516101799190611a6a565b60405180910390f35b61018a61086d565b6040516101979190611a6a565b60405180910390f35b6101a8610873565b6040516101b59190611a6a565b60405180910390f35b6101d860048036038101906101d39190611b08565b610879565b005b6101f460048036038101906101ef9190611825565b610a98565b60405161020999989796959493929190611c56565b60405180910390f35b61022c60048036038101906102279190611cf1565b610c10565b6040516102399190611d66565b60405180910390f35b61025c60048036038101906102579190611825565b610c30565b005b610266610db1565b6040516102739190611a6a565b60405180910390f35b61029660048036038101906102919190611825565b610db7565b005b6102b260048036038101906102ad9190611cf1565b610f55565b6040516102bf9190611d81565b60405180910390f35b6102e260048036038101906102dd9190611825565b611192565b005b6102ec611330565b6040516102f99190611db2565b60405180910390f35b61030a611354565b6040516103179190611a6a565b60405180910390f35b61033a60048036038101906103359190611825565b61135a565b6040516103479190611d81565b60405180910390f35b600480600481111561036557610364611bd0565b5b600760003373ffffffffffffffffffffffffffffffffffffffff1673ffffffffffffffffffffffffffffffffffffffff16815260200190815260200160002060009054906101000a900460ff1660048111156103c4576103c3611bd0565b5b14610404576040517f08c379a00000000000000000000000000000000000000000000000000000000081526004016103fb90611e19565b60405180910390fd5b6003600581111561041857610417611bd0565b5b6006600084815260200190815260200160002060070160009054906101000a900460ff16600581111561044e5761044d611bd0565b5b1461048e576040517f08c379a000000000000000000000000000000000000000000000000000000000815260040161048590611e85565b60405180910390fd5b600554600660008481526020019081526020016000206006018190555060046006600084815260200190815260200160002060070160006101000a81548160ff021916908360058111156104e5576104e4611bd0565b5b02179055505050565b60008054906101000a900473ffffffffffffffffffffffffffffffffffffffff1673ffffffffffffffffffffffffffffffffffffffff163373ffffffffffffffffffffffffffffffffffffffff161461057c576040517f08c379a000000000000000000000000000000000000000000000000000000000815260040161057390611ef1565b60405180910390fd5b6001600081548092919061058f90611f40565b9190505550604051806101200160405280600154815260200184815260200183815260200160008152602001600081526020016000815260200160008152602001600060058111156105e4576105e3611bd0565b5b815260200182151581525060066000600154815260200190815260200160002060008201518160000155602082015181600101908051906020019061062a929190611738565b506040820151816002019080519060200190610647929190611738565b50606082015181600301556080820151816004015560a0820151816005015560c0820151816006015560e08201518160070160006101000a81548160ff0219169083600581111561069b5761069a611bd0565b5b02179055506101008201518160070160016101000a81548160ff021916908315150217905550905050505050565b60028060048111156106de576106dd611bd0565b5b600760003373ffffffffffffffffffffffffffffffffffffffff1673ffffffffffffffffffffffffffffffffffffffff16815260200190815260200160002060009054906101000a900460ff16600481111561073d5761073c611bd0565b5b1461077d576040517f08c379a000000000000000000000000000000000000000000000000000000000815260040161077490611e19565b60405180910390fd5b6001600581111561079157610790611bd0565b5b6006600084815260200190815260200160002060070160009054906101000a900460ff1660058111156107c7576107c6611bd0565b5b14610807576040517f08c379a00000000000000000000000000000000000000000000000000000000081526004016107fe90611fd5565b60405180910390fd5b600354600660008481526020019081526020016000206004018190555060026006600084815260200190815260200160002060070160006101000a81548160ff0219169083600581111561085e5761085d611bd0565b5b02179055505050565b60045481565b60015481565b60035481565b60008054906101000a900473ffffffffffffffffffffffffffffffffffffffff1673ffffffffffffffffffffffffffffffffffffffff163373ffffffffffffffffffffffffffffffffffffffff1614610907576040517f08c379a00000000000000000000000000000000000000000000000000000000081526004016108fe90611ef1565b60405180910390fd5b80600760008473ffffffffffffffffffffffffffffffffffffffff1673ffffffffffffffffffffffffffffffffffffffff16815260200190815260200160002060006101000a81548160ff0219169083600481111561096957610968611bd0565b5b02179055506001600481111561098257610981611bd0565b5b81600481111561099557610994611bd0565b5b14156109b857600260008154809291906109ae90611f40565b9190505550610a94565b600260048111156109cc576109cb611bd0565b5b8160048111156109df576109de611bd0565b5b1415610a0257600360008154809291906109f890611f40565b9190505550610a93565b60036004811115610a1657610a15611bd0565b5b816004811115610a2957610a28611bd0565b5b1415610a4c5760046000815480929190610a4290611f40565b9190505550610a92565b600480811115610a5f57610a5e611bd0565b5b816004811115610a7257610a71611bd0565b5b1415610a915760056000815480929190610a8b90611f40565b91905055505b5b5b5b5050565b6006602052806000526040600020600091509050806000015490806001018054610ac190612024565b80601f0160208091040260200160405190810160405280929190818152602001828054610aed90612024565b8015610b3a5780601f10610b0f57610100808354040283529160200191610b3a565b820191906000526020600020905b815481529060010190602001808311610b1d57829003601f168201915b505050505090806002018054610b4f90612024565b80601f0160208091040260200160405190810160405280929190818152602001828054610b7b90612024565b8015610bc85780601f10610b9d57610100808354040283529160200191610bc8565b820191906000526020600020905b815481529060010190602001808311610bab57829003601f168201915b5050505050908060030154908060040154908060050154908060060154908060070160009054906101000a900460ff16908060070160019054906101000a900460ff16905089565b60076020528060005260406000206000915054906101000a900460ff1681565b6004806004811115610c4557610c44611bd0565b5b600760003373ffffffffffffffffffffffffffffffffffffffff1673ffffffffffffffffffffffffffffffffffffffff16815260200190815260200160002060009054906101000a900460ff166004811115610ca457610ca3611bd0565b5b14610ce4576040517f08c379a0000000000000000000000000000000000000000000000000000000008152600401610cdb90611e19565b60405180910390fd5b60046005811115610cf857610cf7611bd0565b5b6006600084815260200190815260200160002060070160009054906101000a900460ff166005811115610d2e57610d2d611bd0565b5b14610d6e576040517f08c379a0000000000000000000000000000000000000000000000000000000008152600401610d65906120a2565b60405180910390fd5b60056006600084815260200190815260200160002060070160006101000a81548160ff02191690836005811115610da857610da7611bd0565b5b02179055505050565b60055481565b6003806004811115610dcc57610dcb611bd0565b5b600760003373ffffffffffffffffffffffffffffffffffffffff1673ffffffffffffffffffffffffffffffffffffffff16815260200190815260200160002060009054906101000a900460ff166004811115610e2b57610e2a611bd0565b5b14610e6b576040517f08c379a0000000000000000000000000000000000000000000000000000000008152600401610e6290611e19565b60405180910390fd5b60026005811115610e7f57610e7e611bd0565b5b6006600084815260200190815260200160002060070160009054906101000a900460ff166005811115610eb557610eb4611bd0565b5b14610ef5576040517f08c379a0000000000000000000000000000000000000000000000000000000008152600401610eec9061210e565b60405180910390fd5b600454600660008481526020019081526020016000206005018190555060036006600084815260200190815260200160002060070160006101000a81548160ff02191690836005811115610f4c57610f4b611bd0565b5b02179055505050565b60606000600760008473ffffffffffffffffffffffffffffffffffffffff1673ffffffffffffffffffffffffffffffffffffffff16815260200190815260200160002060009054906101000a900460ff16905060016004811115610fbc57610fbb611bd0565b5b816004811115610fcf57610fce611bd0565b5b1415611013576040518060400160405280601581526020017f526177204d6174657269616c20537570706c696572000000000000000000000081525091505061118d565b6002600481111561102757611026611bd0565b5b81600481111561103a57611039611bd0565b5b141561107e576040518060400160405280600c81526020017f4d616e756661637475726572000000000000000000000000000000000000000081525091505061118d565b6003600481111561109257611091611bd0565b5b8160048111156110a5576110a4611bd0565b5b14156110e9576040518060400160405280600b81526020017f4469737472696275746f7200000000000000000000000000000000000000000081525091505061118d565b6004808111156110fc576110fb611bd0565b5b81600481111561110f5761110e611bd0565b5b1415611153576040518060400160405280600881526020017f52657461696c657200000000000000000000000000000000000000000000000081525091505061118d565b6040518060400160405280601081526020017f4e6f20526f6c652041737369676e6564000000000000000000000000000000008152509150505b919050565b60018060048111156111a7576111a6611bd0565b5b600760003373ffffffffffffffffffffffffffffffffffffffff1673ffffffffffffffffffffffffffffffffffffffff16815260200190815260200160002060009054906101000a900460ff16600481111561120657611205611bd0565b5b14611246576040517f08c379a000000000000000000000000000000000000000000000000000000000815260040161123d90611e19565b60405180910390fd5b6000600581111561125a57611259611bd0565b5b6006600084815260200190815260200160002060070160009054906101000a900460ff1660058111156112905761128f611bd0565b5b146112d0576040517f08c379a00000000000000000000000000000000000000000000000000000000081526004016112c7906121a0565b60405180910390fd5b600254600660008481526020019081526020016000206003018190555060016006600084815260200190815260200160002060070160006101000a81548160ff0219169083600581111561132757611326611bd0565b5b02179055505050565b60008054906101000a900473ffffffffffffffffffffffffffffffffffffffff1681565b60025481565b606060008211801561136e57506001548211155b6113ad576040517f08c379a00000000000000000000000000000000000000000000000000000000081526004016113a49061220c565b60405180910390fd5b600060058111156113c1576113c0611bd0565b5b6006600084815260200190815260200160002060070160009054906101000a900460ff1660058111156113f7576113f6611bd0565b5b141561143a576040518060400160405280601181526020017f436f6c644472696e6b204f7264657265640000000000000000000000000000008152509050611733565b6001600581111561144e5761144d611bd0565b5b6006600084815260200190815260200160002060070160009054906101000a900460ff16600581111561148457611483611bd0565b5b14156114c7576040518060400160405280601981526020017f526177204d6174657269616c20537570706c79205374616765000000000000008152509050611733565b600260058111156114db576114da611bd0565b5b6006600084815260200190815260200160002060070160009054906101000a900460ff16600581111561151157611510611bd0565b5b1415611554576040518060400160405280601381526020017f4d616e75666163747572696e67205374616765000000000000000000000000008152509050611733565b6003600581111561156857611567611bd0565b5b6006600084815260200190815260200160002060070160009054906101000a900460ff16600581111561159e5761159d611bd0565b5b14156115e1576040518060400160405280601281526020017f446973747269627574696f6e20537461676500000000000000000000000000008152509050611733565b600460058111156115f5576115f4611bd0565b5b6006600084815260200190815260200160002060070160009054906101000a900460ff16600581111561162b5761162a611bd0565b5b141561166e576040518060400160405280600c81526020017f52657461696c20537461676500000000000000000000000000000000000000008152509050611733565b60058081111561168157611680611bd0565b5b6006600084815260200190815260200160002060070160009054906101000a900460ff1660058111156116b7576116b6611bd0565b5b14156116fa576040518060400160405280600e81526020017f436f6c644472696e6b20536f6c640000000000000000000000000000000000008152509050611733565b6040518060400160405280600d81526020017f496e76616c69642053746167650000000000000000000000000000000000000081525090505b919050565b82805461174490612024565b90600052602060002090601f01602090048101928261176657600085556117ad565b82601f1061177f57805160ff19168380011785556117ad565b828001600101855582156117ad579182015b828111156117ac578251825591602001919060010190611791565b5b5090506117ba91906117be565b5090565b5b808211156117d75760008160009055506001016117bf565b5090565b6000604051905090565b600080fd5b600080fd5b6000819050919050565b611802816117ef565b811461180d57600080fd5b50565b60008135905061181f816117f9565b92915050565b60006020828403121561183b5761183a6117e5565b5b600061184984828501611810565b91505092915050565b600080fd5b600080fd5b6000601f19601f8301169050919050565b7f4e487b7100000000000000000000000000000000000000000000000000000000600052604160045260246000fd5b6118a58261185c565b810181811067ffffffffffffffff821117156118c4576118c361186d565b5b80604052505050565b60006118d76117db565b90506118e3828261189c565b919050565b600067ffffffffffffffff8211156119035761190261186d565b5b61190c8261185c565b9050602081019050919050565b82818337600083830152505050565b600061193b611936846118e8565b6118cd565b90508281526020810184848401111561195757611956611857565b5b611962848285611919565b509392505050565b600082601f83011261197f5761197e611852565b5b813561198f848260208601611928565b91505092915050565b60008115159050919050565b6119ad81611998565b81146119b857600080fd5b50565b6000813590506119ca816119a4565b92915050565b6000806000606084860312156119e9576119e86117e5565b5b600084013567ffffffffffffffff811115611a0757611a066117ea565b5b611a138682870161196a565b935050602084013567ffffffffffffffff811115611a3457611a336117ea565b5b611a408682870161196a565b9250506040611a51868287016119bb565b9150509250925092565b611a64816117ef565b82525050565b6000602082019050611a7f6000830184611a5b565b92915050565b600073ffffffffffffffffffffffffffffffffffffffff82169050919050565b6000611ab082611a85565b9050919050565b611ac081611aa5565b8114611acb57600080fd5b50565b600081359050611add81611ab7565b92915050565b60058110611af057600080fd5b50565b600081359050611b0281611ae3565b92915050565b60008060408385031215611b1f57611b1e6117e5565b5b6000611b2d85828601611ace565b9250506020611b3e85828601611af3565b9150509250929050565b600081519050919050565b600082825260208201905092915050565b60005b83811015611b82578082015181840152602081019050611b67565b83811115611b91576000848401525b50505050565b6000611ba282611b48565b611bac8185611b53565b9350611bbc818560208601611b64565b611bc58161185c565b840191505092915050565b7f4e487b7100000000000000000000000000000000000000000000000000000000600052602160045260246000fd5b60068110611c1057611c0f611bd0565b5b50565b6000819050611c2182611bff565b919050565b6000611c3182611c13565b9050919050565b611c4181611c26565b82525050565b611c5081611998565b82525050565b600061012082019050611c6c600083018c611a5b565b8181036020830152611c7e818b611b97565b90508181036040830152611c92818a611b97565b9050611ca16060830189611a5b565b611cae6080830188611a5b565b611cbb60a0830187611a5b565b611cc860c0830186611a5b565b611cd560e0830185611c38565b611ce3610100830184611c47565b9a9950505050505050505050565b600060208284031215611d0757611d066117e5565b5b6000611d1584828501611ace565b91505092915050565b60058110611d2f57611d2e611bd0565b5b50565b6000819050611d4082611d1e565b919050565b6000611d5082611d32565b9050919050565b611d6081611d45565b82525050565b6000602082019050611d7b6000830184611d57565b92915050565b60006020820190508181036000830152611d9b8184611b97565b905092915050565b611dac81611aa5565b82525050565b6000602082019050611dc76000830184611da3565b92915050565b7f4e6f7420617574686f72697a656420666f72207468697320726f6c6500000000600082015250565b6000611e03601c83611b53565b9150611e0e82611dcd565b602082019050919050565b60006020820190508181036000830152611e3281611df6565b9050919050565b7f496e76616c696420737461676520666f722072657461696c696e670000000000600082015250565b6000611e6f601b83611b53565b9150611e7a82611e39565b602082019050919050565b60006020820190508181036000830152611e9e81611e62565b9050919050565b7f4e6f7420617574686f72697a6564000000000000000000000000000000000000600082015250565b6000611edb600e83611b53565b9150611ee682611ea5565b602082019050919050565b60006020820190508181036000830152611f0a81611ece565b9050919050565b7f4e487b7100000000000000000000000000000000000000000000000000000000600052601160045260246000fd5b6000611f4b826117ef565b91507fffffffffffffffffffffffffffffffffffffffffffffffffffffffffffffffff821415611f7e57611f7d611f11565b5b600182019050919050565b7f496e76616c696420737461676520666f72206d616e75666163747572696e6700600082015250565b6000611fbf601f83611b53565b9150611fca82611f89565b602082019050919050565b60006020820190508181036000830152611fee81611fb2565b9050919050565b7f4e487b7100000000000000000000000000000000000000000000000000000000600052602260045260246000fd5b6000600282049050600182168061203c57607f821691505b602082108114156120505761204f611ff5565b5b50919050565b7f496e76616c696420737461676520666f722073656c6c696e6700000000000000600082015250565b600061208c601983611b53565b915061209782612056565b602082019050919050565b600060208201905081810360008301526120bb8161207f565b9050919050565b7f496e76616c696420737461676520666f7220646973747269627574696f6e0000600082015250565b60006120f8601e83611b53565b9150612103826120c2565b602082019050919050565b60006020820190508181036000830152612127816120eb565b9050919050565b7f496e76616c696420737461676520666f7220726177206d6174657269616c207360008201527f7570706c79000000000000000000000000000000000000000000000000000000602082015250565b600061218a602583611b53565b91506121958261212e565b604082019050919050565b600060208201905081810360008301526121b98161217d565b9050919050565b7f436f6c644472696e6b20494420697320696e76616c6964000000000000000000600082015250565b60006121f6601783611b53565b9150612201826121c0565b602082019050919050565b60006020820190508181036000830152612225816121e9565b905091905056fea2646970667358221220c2e63aea955bbb42394dc537585df0228541501c467ffac78a24ed69f02f3f4c64736f6c634300080b0033",
  "immutableReferences": {},
  "source": "// SPDX-License-Identifier: MIT\r\npragma solidity >=0.4.22 <0.9.0;\r\n\r\ncontract chain {\r\n    //Smart Contract owner will be the person who deploys the contract; only they can authorize various roles\r\n    address public Owner;\r\n\r\n    // Constructor will be called when smart contract is deployed on the blockchain\r\n    constructor(){\r\n        Owner = msg.sender;\r\n    }\r\n\r\n    //Roles (flow of supply chain)\r\n    enum Role { \r\n        None, \r\n        RawMaterialSupplier, \r\n        Manufacturer, \r\n        Distributor, \r\n        Retailer \r\n    }\r\n    \r\n    // Enum representing different stages in the supply chain\r\n    enum STAGE {\r\n        Init,\r\n        RawMaterialSupply,\r\n        Manufacture,\r\n        Distribution,\r\n        Retail,\r\n        Sold\r\n    }\r\n    \r\n    // Cold Drink count\r\n    uint256 public ColdDrinkCtr = 0;\r\n    // Counters for suppliers, manufacturers, distributors, and retailers\r\n    uint256 public rmsCtr = 0;\r\n    uint256 public manCtr = 0;\r\n    uint256 public disCtr = 0;\r\n    uint256 public retCtr = 0;\r\n\r\n    //Struct to track Cold Drink data\r\n    struct ColdDrink {\r\n        uint256 id;\r\n        string name;\r\n        string description;\r\n        uint256 RMSid;\r\n        uint256 MANid;\r\n        uint256 DISid;\r\n        uint256 RETid;\r\n        STAGE stage;\r\n        bool ingredientsPermitted;\r\n    }\r\n\r\n    // Mappings to store all Cold Drinks and participants in the supply chain\r\n    mapping(uint256 => ColdDrink) public Stock;\r\n    mapping(address => Role) public Participants;\r\n\r\n    // Modifier to ensure only contract owner can call certain functions\r\n    modifier onlyByOwner() {\r\n        require(msg.sender == Owner, \"Not authorized\");\r\n        _;\r\n    }\r\n\r\n    // Modifier to ensure only a specific role can access the function\r\n    modifier onlyByRole(Role _role) {\r\n        require(Participants[msg.sender] == _role, \"Not authorized for this role\");\r\n        _;\r\n    }\r\n\r\n    // Function to add participants in the supply chain\r\n    function addParticipant(address _address, Role _role) public onlyByOwner {\r\n        Participants[_address] = _role;\r\n        if (_role == Role.RawMaterialSupplier) rmsCtr++;\r\n        else if (_role == Role.Manufacturer) manCtr++;\r\n        else if (_role == Role.Distributor) disCtr++;\r\n        else if (_role == Role.Retailer) retCtr++;\r\n    }\r\n\r\n    // Function to show the stage of the cold drink\r\n    function showStage(uint256 _ID) public view returns (string memory) {\r\n        require(_ID > 0 && _ID <= ColdDrinkCtr, \"ColdDrink ID is invalid\");\r\n\r\n        if (Stock[_ID].stage == STAGE.Init)\r\n            return \"ColdDrink Ordered\";\r\n        else if (Stock[_ID].stage == STAGE.RawMaterialSupply)\r\n            return \"Raw Material Supply Stage\";\r\n        else if (Stock[_ID].stage == STAGE.Manufacture)\r\n            return \"Manufacturing Stage\";\r\n        else if (Stock[_ID].stage == STAGE.Distribution)\r\n            return \"Distribution Stage\";\r\n        else if (Stock[_ID].stage == STAGE.Retail)\r\n            return \"Retail Stage\";\r\n        else if (Stock[_ID].stage == STAGE.Sold)\r\n            return \"ColdDrink Sold\";\r\n        else\r\n            return \"Invalid Stage\";\r\n    }\r\n\r\n    // Function to add new ColdDrinks to the stock\r\n    function addColdDrink(string memory _name, string memory _description, bool _ingredientsPermitted) public onlyByOwner {\r\n        ColdDrinkCtr++;\r\n        Stock[ColdDrinkCtr] = ColdDrink(\r\n            ColdDrinkCtr,\r\n            _name,\r\n            _description,\r\n            0,\r\n            0,\r\n            0,\r\n            0,\r\n            STAGE.Init,\r\n            _ingredientsPermitted\r\n        );\r\n    }\r\n\r\n    // Function for raw material supply to the manufacturer\r\n    function supplyRawMaterials(uint256 _ID) public onlyByRole(Role.RawMaterialSupplier) {\r\n        require(Stock[_ID].stage == STAGE.Init, \"Invalid stage for raw material supply\");\r\n        Stock[_ID].RMSid = rmsCtr;\r\n        Stock[_ID].stage = STAGE.RawMaterialSupply;\r\n    }\r\n\r\n    // Function for manufacturing process\r\n    function manufactureColdDrink(uint256 _ID) public onlyByRole(Role.Manufacturer) {\r\n        require(Stock[_ID].stage == STAGE.RawMaterialSupply, \"Invalid stage for manufacturing\");\r\n        Stock[_ID].MANid = manCtr;\r\n        Stock[_ID].stage = STAGE.Manufacture;\r\n    }\r\n\r\n    // Function for distribution process\r\n    function distributeColdDrink(uint256 _ID) public onlyByRole(Role.Distributor) {\r\n        require(Stock[_ID].stage == STAGE.Manufacture, \"Invalid stage for distribution\");\r\n        Stock[_ID].DISid = disCtr;\r\n        Stock[_ID].stage = STAGE.Distribution;\r\n    }\r\n\r\n    // Function to retail the ColdDrink\r\n    function retailColdDrink(uint256 _ID) public onlyByRole(Role.Retailer) {\r\n        require(Stock[_ID].stage == STAGE.Distribution, \"Invalid stage for retailing\");\r\n        Stock[_ID].RETid = retCtr;\r\n        Stock[_ID].stage = STAGE.Retail;\r\n    }\r\n\r\n    // Function to mark ColdDrink as sold\r\n    function sellColdDrink(uint256 _ID) public onlyByRole(Role.Retailer) {\r\n        require(Stock[_ID].stage == STAGE.Retail, \"Invalid stage for selling\");\r\n        Stock[_ID].stage = STAGE.Sold;\r\n    }\r\n\r\n    // Function to check if a particular address belongs to a participant role\r\n    function checkRole(address _address) public view returns (string memory) {\r\n        Role role = Participants[_address];\r\n        if (role == Role.RawMaterialSupplier) return \"Raw Material Supplier\";\r\n        else if (role == Role.Manufacturer) return \"Manufacturer\";\r\n        else if (role == Role.Distributor) return \"Distributor\";\r\n        else if (role == Role.Retailer) return \"Retailer\";\r\n        else return \"No Role Assigned\";\r\n    }\r\n}\r\n",
  "sourcePath": "C:\\Users\\rprar\\Projects\\craftncode\\contracts\\chain.sol",
  "compiler": {
    "name": "solc",
    "version": "0.8.11+commit.d7f03943.Emscripten.clang"
  },
  "schemaVersion": "3.4.16",
  "updatedAt": "2024-11-21T14:43:28.845Z",
  "networkType": "ethereum",
  "devdoc": {
    "kind": "dev",
    "methods": {},
    "version": 1
  },
  "userdoc": {
    "kind": "user",
    "methods": {},
    "version": 1
  }
}